{
  "_format": "hh-sol-artifact-1",
  "contractName": "PlynToken",
  "sourceName": "contracts/Vesting.sol",
  "abi": [
    {
      "inputs": [],
      "stateMutability": "nonpayable",
      "type": "constructor"
    },
    {
      "anonymous": false,
      "inputs": [
        {
          "indexed": true,
          "internalType": "address",
          "name": "owner",
          "type": "address"
        },
        {
          "indexed": true,
          "internalType": "address",
          "name": "spender",
          "type": "address"
        },
        {
          "indexed": false,
          "internalType": "uint256",
          "name": "value",
          "type": "uint256"
        }
      ],
      "name": "Approval",
      "type": "event"
    },
    {
      "anonymous": false,
      "inputs": [
        {
          "indexed": true,
          "internalType": "address",
          "name": "previousOwner",
          "type": "address"
        },
        {
          "indexed": true,
          "internalType": "address",
          "name": "newOwner",
          "type": "address"
        }
      ],
      "name": "OwnershipTransferred",
      "type": "event"
    },
    {
      "anonymous": false,
      "inputs": [
        {
          "indexed": true,
          "internalType": "address",
          "name": "from",
          "type": "address"
        },
        {
          "indexed": true,
          "internalType": "address",
          "name": "to",
          "type": "address"
        },
        {
          "indexed": false,
          "internalType": "uint256",
          "name": "value",
          "type": "uint256"
        }
      ],
      "name": "Transfer",
      "type": "event"
    },
    {
      "inputs": [],
      "name": "allStakeholders",
      "outputs": [
        {
          "internalType": "address[]",
          "name": "",
          "type": "address[]"
        }
      ],
      "stateMutability": "view",
      "type": "function"
    },
    {
      "inputs": [
        {
          "internalType": "address",
          "name": "owner",
          "type": "address"
        },
        {
          "internalType": "address",
          "name": "spender",
          "type": "address"
        }
      ],
      "name": "allowance",
      "outputs": [
        {
          "internalType": "uint256",
          "name": "",
          "type": "uint256"
        }
      ],
      "stateMutability": "view",
      "type": "function"
    },
    {
      "inputs": [
        {
          "internalType": "address",
          "name": "spender",
          "type": "address"
        },
        {
          "internalType": "uint256",
          "name": "amount",
          "type": "uint256"
        }
      ],
      "name": "approve",
      "outputs": [
        {
          "internalType": "bool",
          "name": "",
          "type": "bool"
        }
      ],
      "stateMutability": "nonpayable",
      "type": "function"
    },
    {
      "inputs": [
        {
          "internalType": "address",
          "name": "account",
          "type": "address"
        }
      ],
      "name": "balanceOf",
      "outputs": [
        {
          "internalType": "uint256",
          "name": "",
          "type": "uint256"
        }
      ],
      "stateMutability": "view",
      "type": "function"
    },
    {
      "inputs": [
        {
          "internalType": "address",
          "name": "buyer",
          "type": "address"
        }
      ],
      "name": "buyToken",
      "outputs": [
        {
          "internalType": "uint256",
          "name": "amount",
          "type": "uint256"
        }
      ],
      "stateMutability": "payable",
      "type": "function"
    },
    {
      "inputs": [
        {
          "internalType": "address",
          "name": "staker",
          "type": "address"
        }
      ],
      "name": "calculateReward",
      "outputs": [
        {
          "internalType": "uint256",
          "name": "",
          "type": "uint256"
        }
      ],
      "stateMutability": "view",
      "type": "function"
    },
    {
      "inputs": [],
      "name": "checkRewardDueDate",
      "outputs": [
        {
          "internalType": "uint256",
          "name": "",
          "type": "uint256"
        }
      ],
      "stateMutability": "view",
      "type": "function"
    },
    {
      "inputs": [
        {
          "internalType": "address",
          "name": "stakeholder_address",
          "type": "address"
        }
      ],
      "name": "checkStakeholder",
      "outputs": [
        {
          "internalType": "bool",
          "name": "",
          "type": "bool"
        },
        {
          "internalType": "uint256",
          "name": "",
          "type": "uint256"
        }
      ],
      "stateMutability": "view",
      "type": "function"
    },
    {
      "inputs": [],
      "name": "claimReward",
      "outputs": [],
      "stateMutability": "nonpayable",
      "type": "function"
    },
    {
      "inputs": [],
      "name": "combinedStake",
      "outputs": [
        {
          "internalType": "uint256",
          "name": "",
          "type": "uint256"
        }
      ],
      "stateMutability": "view",
      "type": "function"
    },
    {
      "inputs": [
        {
          "internalType": "uint256",
          "name": "amountStaked",
          "type": "uint256"
        }
      ],
      "name": "createStake",
      "outputs": [],
      "stateMutability": "nonpayable",
      "type": "function"
    },
    {
      "inputs": [],
      "name": "decimals",
      "outputs": [
        {
          "internalType": "uint8",
          "name": "",
          "type": "uint8"
        }
      ],
      "stateMutability": "view",
      "type": "function"
    },
    {
      "inputs": [
        {
          "internalType": "address",
          "name": "spender",
          "type": "address"
        },
        {
          "internalType": "uint256",
          "name": "subtractedValue",
          "type": "uint256"
        }
      ],
      "name": "decreaseAllowance",
      "outputs": [
        {
          "internalType": "bool",
          "name": "",
          "type": "bool"
        }
      ],
      "stateMutability": "nonpayable",
      "type": "function"
    },
    {
      "inputs": [
        {
          "internalType": "address",
          "name": "",
          "type": "address"
        }
      ],
      "name": "dueDate",
      "outputs": [
        {
          "internalType": "uint256",
          "name": "",
          "type": "uint256"
        }
      ],
      "stateMutability": "view",
      "type": "function"
    },
    {
      "inputs": [
        {
          "internalType": "address",
          "name": "spender",
          "type": "address"
        },
        {
          "internalType": "uint256",
          "name": "addedValue",
          "type": "uint256"
        }
      ],
      "name": "increaseAllowance",
      "outputs": [
        {
          "internalType": "bool",
          "name": "",
          "type": "bool"
        }
      ],
      "stateMutability": "nonpayable",
      "type": "function"
    },
    {
      "inputs": [
        {
          "internalType": "uint256",
          "name": "newRate",
          "type": "uint256"
        }
      ],
      "name": "modifyTokenBuyPrice",
      "outputs": [],
      "stateMutability": "nonpayable",
      "type": "function"
    },
    {
      "inputs": [],
      "name": "name",
      "outputs": [
        {
          "internalType": "string",
          "name": "",
          "type": "string"
        }
      ],
      "stateMutability": "view",
      "type": "function"
    },
    {
      "inputs": [],
      "name": "owner",
      "outputs": [
        {
          "internalType": "address",
          "name": "",
          "type": "address"
        }
      ],
      "stateMutability": "view",
      "type": "function"
    },
    {
      "inputs": [],
      "name": "rate",
      "outputs": [
        {
          "internalType": "uint256",
          "name": "",
          "type": "uint256"
        }
      ],
      "stateMutability": "view",
      "type": "function"
    },
    {
      "inputs": [
        {
          "internalType": "uint256",
          "name": "amountStaked",
          "type": "uint256"
        }
      ],
      "name": "removeStake",
      "outputs": [],
      "stateMutability": "nonpayable",
      "type": "function"
    },
    {
      "inputs": [],
      "name": "renounceOwnership",
      "outputs": [],
      "stateMutability": "nonpayable",
      "type": "function"
    },
    {
      "inputs": [],
      "name": "stakeOf",
      "outputs": [
        {
          "internalType": "uint256",
          "name": "",
          "type": "uint256"
        }
      ],
      "stateMutability": "view",
      "type": "function"
    },
    {
      "inputs": [],
      "name": "symbol",
      "outputs": [
        {
          "internalType": "string",
          "name": "",
          "type": "string"
        }
      ],
      "stateMutability": "view",
      "type": "function"
    },
    {
      "inputs": [],
      "name": "totalSupply",
      "outputs": [
        {
          "internalType": "uint256",
          "name": "",
          "type": "uint256"
        }
      ],
      "stateMutability": "view",
      "type": "function"
    },
    {
      "inputs": [
        {
          "internalType": "address",
          "name": "to",
          "type": "address"
        },
        {
          "internalType": "uint256",
          "name": "amount",
          "type": "uint256"
        }
      ],
      "name": "transfer",
      "outputs": [
        {
          "internalType": "bool",
          "name": "",
          "type": "bool"
        }
      ],
      "stateMutability": "nonpayable",
      "type": "function"
    },
    {
      "inputs": [
        {
          "internalType": "address",
          "name": "from",
          "type": "address"
        },
        {
          "internalType": "address",
          "name": "to",
          "type": "address"
        },
        {
          "internalType": "uint256",
          "name": "amount",
          "type": "uint256"
        }
      ],
      "name": "transferFrom",
      "outputs": [
        {
          "internalType": "bool",
          "name": "",
          "type": "bool"
        }
      ],
      "stateMutability": "nonpayable",
      "type": "function"
    },
    {
      "inputs": [
        {
          "internalType": "address",
          "name": "newOwner",
          "type": "address"
        }
      ],
      "name": "transferOwnership",
      "outputs": [],
      "stateMutability": "nonpayable",
      "type": "function"
    }
  ],
  "bytecode": "0x60806040526103e86007553480156200001757600080fd5b506040518060400160405280600981526020017f4c796e6e546f6b656e00000000000000000000000000000000000000000000008152506040518060400160405280600381526020017f4c544b000000000000000000000000000000000000000000000000000000000081525081600390805190602001906200009c92919062000376565b508060049080519060200190620000b592919062000376565b505050620000d8620000cc6200011c60201b60201c565b6200012460201b60201c565b6200011633620000ed620001ea60201b60201c565b600a620000fb919062000566565b6103e86200010a9190620006a3565b620001f360201b60201c565b620007e5565b600033905090565b6000600560009054906101000a900473ffffffffffffffffffffffffffffffffffffffff16905081600560006101000a81548173ffffffffffffffffffffffffffffffffffffffff021916908373ffffffffffffffffffffffffffffffffffffffff1602179055508173ffffffffffffffffffffffffffffffffffffffff168173ffffffffffffffffffffffffffffffffffffffff167f8be0079c531659141344cd1fd0a4f28419497f9722a3daafe3b4186f6b6457e060405160405180910390a35050565b60006012905090565b600073ffffffffffffffffffffffffffffffffffffffff168273ffffffffffffffffffffffffffffffffffffffff16141562000266576040517f08c379a00000000000000000000000000000000000000000000000000000000081526004016200025d906200045e565b60405180910390fd5b6200027a600083836200036c60201b60201c565b80600260008282546200028e9190620004ae565b92505081905550806000808473ffffffffffffffffffffffffffffffffffffffff1673ffffffffffffffffffffffffffffffffffffffff1681526020019081526020016000206000828254620002e59190620004ae565b925050819055508173ffffffffffffffffffffffffffffffffffffffff16600073ffffffffffffffffffffffffffffffffffffffff167fddf252ad1be2c89b69c2b068fc378daa952ba7f163c4a11628f55a4df523b3ef836040516200034c919062000480565b60405180910390a362000368600083836200037160201b60201c565b5050565b505050565b505050565b82805462000384906200071b565b90600052602060002090601f016020900481019282620003a85760008555620003f4565b82601f10620003c357805160ff1916838001178555620003f4565b82800160010185558215620003f4579182015b82811115620003f3578251825591602001919060010190620003d6565b5b50905062000403919062000407565b5090565b5b808211156200042257600081600090555060010162000408565b5090565b600062000435601f836200049d565b91506200044282620007bc565b602082019050919050565b620004588162000704565b82525050565b60006020820190508181036000830152620004798162000426565b9050919050565b60006020820190506200049760008301846200044d565b92915050565b600082825260208201905092915050565b6000620004bb8262000704565b9150620004c88362000704565b9250827fffffffffffffffffffffffffffffffffffffffffffffffffffffffffffffffff038211156200050057620004ff62000751565b5b828201905092915050565b6000808291508390505b60018511156200055d5780860481111562000535576200053462000751565b5b6001851615620005455780820291505b80810290506200055585620007af565b945062000515565b94509492505050565b6000620005738262000704565b915062000580836200070e565b9250620005af7fffffffffffffffffffffffffffffffffffffffffffffffffffffffffffffffff8484620005b7565b905092915050565b600082620005c957600190506200069c565b81620005d957600090506200069c565b8160018114620005f25760028114620005fd5762000633565b60019150506200069c565b60ff84111562000612576200061162000751565b5b8360020a9150848211156200062c576200062b62000751565b5b506200069c565b5060208310610133831016604e8410600b84101617156200066d5782820a90508381111562000667576200066662000751565b5b6200069c565b6200067c84848460016200050b565b9250905081840481111562000696576200069562000751565b5b81810290505b9392505050565b6000620006b08262000704565b9150620006bd8362000704565b9250817fffffffffffffffffffffffffffffffffffffffffffffffffffffffffffffffff0483118215151615620006f957620006f862000751565b5b828202905092915050565b6000819050919050565b600060ff82169050919050565b600060028204905060018216806200073457607f821691505b602082108114156200074b576200074a62000780565b5b50919050565b7f4e487b7100000000000000000000000000000000000000000000000000000000600052601160045260246000fd5b7f4e487b7100000000000000000000000000000000000000000000000000000000600052602260045260246000fd5b60008160011c9050919050565b7f45524332303a206d696e7420746f20746865207a65726f206164647265737300600082015250565b612e8080620007f56000396000f3fe60806040526004361061019c5760003560e01c8063834dc984116100ec578063ad5b8fee1161008a578063d82e396211610064578063d82e3962146105d3578063dd62ed3e14610610578063f2fde38b1461064d578063faf703ed146106765761019c565b8063ad5b8fee14610566578063b88a802f14610591578063d6960d12146105a85761019c565b806395d89b41116100c657806395d89b4114610496578063a457c2d7146104c1578063a626e840146104fe578063a9059cbb146105295761019c565b8063834dc984146104195780638da5cb5b14610442578063939624ab1461046d5761019c565b8063313ce5671161015957806370a082311161013357806370a082311461036a5780637104dd0d146103a7578063715018a6146103d25780637e72fb52146103e95761019c565b8063313ce567146102c557806337de1899146102f0578063395093511461032d5761019c565b806306fdde03146101a1578063095ea7b3146101cc57806318160ddd146102095780631bf6ddae1461023457806323b872dd1461025d5780632c4e722e1461029a575b600080fd5b3480156101ad57600080fd5b506101b66106b4565b6040516101c39190612493565b60405180910390f35b3480156101d857600080fd5b506101f360048036038101906101ee919061209e565b610746565b604051610200919061244f565b60405180910390f35b34801561021557600080fd5b5061021e610769565b60405161022b9190612695565b60405180910390f35b34801561024057600080fd5b5061025b600480360381019061025691906120de565b610773565b005b34801561026957600080fd5b50610284600480360381019061027f919061204b565b610912565b604051610291919061244f565b60405180910390f35b3480156102a657600080fd5b506102af610941565b6040516102bc9190612695565b60405180910390f35b3480156102d157600080fd5b506102da610947565b6040516102e791906126b0565b60405180910390f35b3480156102fc57600080fd5b5061031760048036038101906103129190611fde565b610950565b6040516103249190612695565b60405180910390f35b34801561033957600080fd5b50610354600480360381019061034f919061209e565b610968565b604051610361919061244f565b60405180910390f35b34801561037657600080fd5b50610391600480360381019061038c9190611fde565b610a12565b60405161039e9190612695565b60405180910390f35b3480156103b357600080fd5b506103bc610a5a565b6040516103c99190612695565b60405180910390f35b3480156103de57600080fd5b506103e7610b1b565b005b61040360048036038101906103fe9190611fde565b610ba3565b6040516104109190612695565b60405180910390f35b34801561042557600080fd5b50610440600480360381019061043b91906120de565b610c06565b005b34801561044e57600080fd5b50610457610c8c565b6040516104649190612412565b60405180910390f35b34801561047957600080fd5b50610494600480360381019061048f91906120de565b610cb6565b005b3480156104a257600080fd5b506104ab610dc0565b6040516104b89190612493565b60405180910390f35b3480156104cd57600080fd5b506104e860048036038101906104e3919061209e565b610e52565b6040516104f5919061244f565b60405180910390f35b34801561050a57600080fd5b50610513610f3c565b6040516105209190612695565b60405180910390f35b34801561053557600080fd5b50610550600480360381019061054b919061209e565b610f83565b60405161055d919061244f565b60405180910390f35b34801561057257600080fd5b5061057b610fa6565b604051610588919061242d565b60405180910390f35b34801561059d57600080fd5b506105a66110b0565b005b3480156105b457600080fd5b506105bd611249565b6040516105ca9190612695565b60405180910390f35b3480156105df57600080fd5b506105fa60048036038101906105f59190611fde565b611290565b6040516106079190612695565b60405180910390f35b34801561061c57600080fd5b506106376004803603810190610632919061200b565b6112e5565b6040516106449190612695565b60405180910390f35b34801561065957600080fd5b50610674600480360381019061066f9190611fde565b61136c565b005b34801561068257600080fd5b5061069d60048036038101906106989190611fde565b611464565b6040516106ab92919061246a565b60405180910390f35b6060600380546106c3906128bd565b80601f01602080910402602001604051908101604052809291908181526020018280546106ef906128bd565b801561073c5780601f106107115761010080835404028352916020019161073c565b820191906000526020600020905b81548152906001019060200180831161071f57829003601f168201915b5050505050905090565b600080610751611517565b905061075e81858561151f565b600191505092915050565b6000600254905090565b600081116107b6576040517f08c379a00000000000000000000000000000000000000000000000000000000081526004016107ad906124d5565b60405180910390fd5b670de0b6b3a7640000816107ca91906127a7565b90506107d633826116ea565b6000600860003373ffffffffffffffffffffffffffffffffffffffff1673ffffffffffffffffffffffffffffffffffffffff16815260200190815260200160002054141561082857610827336118c1565b5b61087a81600860003373ffffffffffffffffffffffffffffffffffffffff1673ffffffffffffffffffffffffffffffffffffffff1681526020019081526020016000205461193c90919063ffffffff16565b600860003373ffffffffffffffffffffffffffffffffffffffff1673ffffffffffffffffffffffffffffffffffffffff1681526020019081526020016000208190555062093a80426108cc9190612720565b600a60003373ffffffffffffffffffffffffffffffffffffffff1673ffffffffffffffffffffffffffffffffffffffff1681526020019081526020016000208190555050565b60008061091d611517565b905061092a858285611952565b6109358585856119de565b60019150509392505050565b60075481565b60006012905090565b600a6020528060005260406000206000915090505481565b600080610973611517565b9050610a07818585600160008673ffffffffffffffffffffffffffffffffffffffff1673ffffffffffffffffffffffffffffffffffffffff16815260200190815260200160002060008973ffffffffffffffffffffffffffffffffffffffff1673ffffffffffffffffffffffffffffffffffffffff16815260200190815260200160002054610a029190612720565b61151f565b600191505092915050565b60008060008373ffffffffffffffffffffffffffffffffffffffff1673ffffffffffffffffffffffffffffffffffffffff168152602001908152602001600020549050919050565b60008060005b600680549050811015610b1357610afd6008600060068481548110610a8857610a876129f4565b5b9060005260206000200160009054906101000a900473ffffffffffffffffffffffffffffffffffffffff1673ffffffffffffffffffffffffffffffffffffffff1673ffffffffffffffffffffffffffffffffffffffff168152602001908152602001600020548361193c90919063ffffffff16565b9150600181610b0c9190612720565b9050610a60565b508091505090565b610b23611517565b73ffffffffffffffffffffffffffffffffffffffff16610b41610c8c565b73ffffffffffffffffffffffffffffffffffffffff1614610b97576040517f08c379a0000000000000000000000000000000000000000000000000000000008152600401610b8e906125b5565b60405180910390fd5b610ba16000611c5f565b565b6000803411610be7576040517f08c379a0000000000000000000000000000000000000000000000000000000008152600401610bde90612595565b60405180910390fd5b60075434610bf591906127a7565b9050610c018282611d25565b919050565b610c0e611517565b73ffffffffffffffffffffffffffffffffffffffff16610c2c610c8c565b73ffffffffffffffffffffffffffffffffffffffff1614610c82576040517f08c379a0000000000000000000000000000000000000000000000000000000008152600401610c79906125b5565b60405180910390fd5b8060078190555050565b6000600560009054906101000a900473ffffffffffffffffffffffffffffffffffffffff16905090565b670de0b6b3a764000081610cca91906127a7565b9050610d1e81600860003373ffffffffffffffffffffffffffffffffffffffff1673ffffffffffffffffffffffffffffffffffffffff16815260200190815260200160002054611e8590919063ffffffff16565b600860003373ffffffffffffffffffffffffffffffffffffffff1673ffffffffffffffffffffffffffffffffffffffff168152602001908152602001600020819055506000600860003373ffffffffffffffffffffffffffffffffffffffff1673ffffffffffffffffffffffffffffffffffffffff168152602001908152602001600020541415610db357610db233611e9b565b5b610dbd3382611d25565b50565b606060048054610dcf906128bd565b80601f0160208091040260200160405190810160405280929190818152602001828054610dfb906128bd565b8015610e485780601f10610e1d57610100808354040283529160200191610e48565b820191906000526020600020905b815481529060010190602001808311610e2b57829003601f168201915b5050505050905090565b600080610e5d611517565b90506000600160008373ffffffffffffffffffffffffffffffffffffffff1673ffffffffffffffffffffffffffffffffffffffff16815260200190815260200160002060008673ffffffffffffffffffffffffffffffffffffffff1673ffffffffffffffffffffffffffffffffffffffff16815260200190815260200160002054905083811015610f23576040517f08c379a0000000000000000000000000000000000000000000000000000000008152600401610f1a90612655565b60405180910390fd5b610f30828686840361151f565b60019250505092915050565b6000600a60003373ffffffffffffffffffffffffffffffffffffffff1673ffffffffffffffffffffffffffffffffffffffff16815260200190815260200160002054905090565b600080610f8e611517565b9050610f9b8185856119de565b600191505092915050565b6060610fb0611517565b73ffffffffffffffffffffffffffffffffffffffff16610fce610c8c565b73ffffffffffffffffffffffffffffffffffffffff1614611024576040517f08c379a000000000000000000000000000000000000000000000000000000000815260040161101b906125b5565b60405180910390fd5b60068054806020026020016040519081016040528092919081815260200182805480156110a657602002820191906000526020600020905b8160009054906101000a900473ffffffffffffffffffffffffffffffffffffffff1673ffffffffffffffffffffffffffffffffffffffff168152602001906001019080831161105c575b5050505050905090565b600a60003373ffffffffffffffffffffffffffffffffffffffff1673ffffffffffffffffffffffffffffffffffffffff16815260200190815260200160002054421015611132576040517f08c379a0000000000000000000000000000000000000000000000000000000008152600401611129906125f5565b60405180910390fd5b611c20600a60003373ffffffffffffffffffffffffffffffffffffffff1673ffffffffffffffffffffffffffffffffffffffff1681526020019081526020016000205461117f9190612720565b42106111dc5762093a80426111949190612720565b600a60003373ffffffffffffffffffffffffffffffffffffffff1673ffffffffffffffffffffffffffffffffffffffff16815260200190815260200160002081905550611247565b60006111e733611290565b905062093a80426111f89190612720565b600a60003373ffffffffffffffffffffffffffffffffffffffff1673ffffffffffffffffffffffffffffffffffffffff168152602001908152602001600020819055506112453382611d25565b505b565b6000600860003373ffffffffffffffffffffffffffffffffffffffff1673ffffffffffffffffffffffffffffffffffffffff16815260200190815260200160002054905090565b60006064600860008473ffffffffffffffffffffffffffffffffffffffff1673ffffffffffffffffffffffffffffffffffffffff168152602001908152602001600020546112de9190612776565b9050919050565b6000600160008473ffffffffffffffffffffffffffffffffffffffff1673ffffffffffffffffffffffffffffffffffffffff16815260200190815260200160002060008373ffffffffffffffffffffffffffffffffffffffff1673ffffffffffffffffffffffffffffffffffffffff16815260200190815260200160002054905092915050565b611374611517565b73ffffffffffffffffffffffffffffffffffffffff16611392610c8c565b73ffffffffffffffffffffffffffffffffffffffff16146113e8576040517f08c379a00000000000000000000000000000000000000000000000000000000081526004016113df906125b5565b60405180910390fd5b600073ffffffffffffffffffffffffffffffffffffffff168173ffffffffffffffffffffffffffffffffffffffff161415611458576040517f08c379a000000000000000000000000000000000000000000000000000000000815260040161144f90612515565b60405180910390fd5b61146181611c5f565b50565b60008060005b600680549050811015611509576006818154811061148b5761148a6129f4565b5b9060005260206000200160009054906101000a900473ffffffffffffffffffffffffffffffffffffffff1673ffffffffffffffffffffffffffffffffffffffff168473ffffffffffffffffffffffffffffffffffffffff1614156114f6576001819250925050611512565b8080611501906128ef565b91505061146a565b50600080915091505b915091565b600033905090565b600073ffffffffffffffffffffffffffffffffffffffff168373ffffffffffffffffffffffffffffffffffffffff16141561158f576040517f08c379a000000000000000000000000000000000000000000000000000000000815260040161158690612635565b60405180910390fd5b600073ffffffffffffffffffffffffffffffffffffffff168273ffffffffffffffffffffffffffffffffffffffff1614156115ff576040517f08c379a00000000000000000000000000000000000000000000000000000000081526004016115f690612535565b60405180910390fd5b80600160008573ffffffffffffffffffffffffffffffffffffffff1673ffffffffffffffffffffffffffffffffffffffff16815260200190815260200160002060008473ffffffffffffffffffffffffffffffffffffffff1673ffffffffffffffffffffffffffffffffffffffff168152602001908152602001600020819055508173ffffffffffffffffffffffffffffffffffffffff168373ffffffffffffffffffffffffffffffffffffffff167f8c5be1e5ebec7d5bd14f71427d1e84f3dd0314c0f7b2291e5b200ac8c7c3b925836040516116dd9190612695565b60405180910390a3505050565b600073ffffffffffffffffffffffffffffffffffffffff168273ffffffffffffffffffffffffffffffffffffffff16141561175a576040517f08c379a0000000000000000000000000000000000000000000000000000000008152600401611751906125d5565b60405180910390fd5b61176682600083611faa565b60008060008473ffffffffffffffffffffffffffffffffffffffff1673ffffffffffffffffffffffffffffffffffffffff168152602001908152602001600020549050818110156117ec576040517f08c379a00000000000000000000000000000000000000000000000000000000081526004016117e3906124f5565b60405180910390fd5b8181036000808573ffffffffffffffffffffffffffffffffffffffff1673ffffffffffffffffffffffffffffffffffffffff1681526020019081526020016000208190555081600260008282546118439190612801565b92505081905550600073ffffffffffffffffffffffffffffffffffffffff168373ffffffffffffffffffffffffffffffffffffffff167fddf252ad1be2c89b69c2b068fc378daa952ba7f163c4a11628f55a4df523b3ef846040516118a89190612695565b60405180910390a36118bc83600084611faf565b505050565b60006118cc82611464565b50905080611938576006829080600181540180825580915050600190039060005260206000200160009091909190916101000a81548173ffffffffffffffffffffffffffffffffffffffff021916908373ffffffffffffffffffffffffffffffffffffffff1602179055505b5050565b6000818361194a9190612720565b905092915050565b600061195e84846112e5565b90507fffffffffffffffffffffffffffffffffffffffffffffffffffffffffffffffff81146119d857818110156119ca576040517f08c379a00000000000000000000000000000000000000000000000000000000081526004016119c190612555565b60405180910390fd5b6119d7848484840361151f565b5b50505050565b600073ffffffffffffffffffffffffffffffffffffffff168373ffffffffffffffffffffffffffffffffffffffff161415611a4e576040517f08c379a0000000000000000000000000000000000000000000000000000000008152600401611a4590612615565b60405180910390fd5b600073ffffffffffffffffffffffffffffffffffffffff168273ffffffffffffffffffffffffffffffffffffffff161415611abe576040517f08c379a0000000000000000000000000000000000000000000000000000000008152600401611ab5906124b5565b60405180910390fd5b611ac9838383611faa565b60008060008573ffffffffffffffffffffffffffffffffffffffff1673ffffffffffffffffffffffffffffffffffffffff16815260200190815260200160002054905081811015611b4f576040517f08c379a0000000000000000000000000000000000000000000000000000000008152600401611b4690612575565b60405180910390fd5b8181036000808673ffffffffffffffffffffffffffffffffffffffff1673ffffffffffffffffffffffffffffffffffffffff16815260200190815260200160002081905550816000808573ffffffffffffffffffffffffffffffffffffffff1673ffffffffffffffffffffffffffffffffffffffff1681526020019081526020016000206000828254611be29190612720565b925050819055508273ffffffffffffffffffffffffffffffffffffffff168473ffffffffffffffffffffffffffffffffffffffff167fddf252ad1be2c89b69c2b068fc378daa952ba7f163c4a11628f55a4df523b3ef84604051611c469190612695565b60405180910390a3611c59848484611faf565b50505050565b6000600560009054906101000a900473ffffffffffffffffffffffffffffffffffffffff16905081600560006101000a81548173ffffffffffffffffffffffffffffffffffffffff021916908373ffffffffffffffffffffffffffffffffffffffff1602179055508173ffffffffffffffffffffffffffffffffffffffff168173ffffffffffffffffffffffffffffffffffffffff167f8be0079c531659141344cd1fd0a4f28419497f9722a3daafe3b4186f6b6457e060405160405180910390a35050565b600073ffffffffffffffffffffffffffffffffffffffff168273ffffffffffffffffffffffffffffffffffffffff161415611d95576040517f08c379a0000000000000000000000000000000000000000000000000000000008152600401611d8c90612675565b60405180910390fd5b611da160008383611faa565b8060026000828254611db39190612720565b92505081905550806000808473ffffffffffffffffffffffffffffffffffffffff1673ffffffffffffffffffffffffffffffffffffffff1681526020019081526020016000206000828254611e089190612720565b925050819055508173ffffffffffffffffffffffffffffffffffffffff16600073ffffffffffffffffffffffffffffffffffffffff167fddf252ad1be2c89b69c2b068fc378daa952ba7f163c4a11628f55a4df523b3ef83604051611e6d9190612695565b60405180910390a3611e8160008383611faf565b5050565b60008183611e939190612801565b905092915050565b600080611ea783611464565b915091508115611fa55760066001600680549050611ec59190612801565b81548110611ed657611ed56129f4565b5b9060005260206000200160009054906101000a900473ffffffffffffffffffffffffffffffffffffffff1660068281548110611f1557611f146129f4565b5b9060005260206000200160006101000a81548173ffffffffffffffffffffffffffffffffffffffff021916908373ffffffffffffffffffffffffffffffffffffffff1602179055506006805480611f6f57611f6e6129c5565b5b6001900381819060005260206000200160006101000a81549073ffffffffffffffffffffffffffffffffffffffff021916905590555b505050565b505050565b505050565b600081359050611fc381612e1c565b92915050565b600081359050611fd881612e33565b92915050565b600060208284031215611ff457611ff3612a23565b5b600061200284828501611fb4565b91505092915050565b6000806040838503121561202257612021612a23565b5b600061203085828601611fb4565b925050602061204185828601611fb4565b9150509250929050565b60008060006060848603121561206457612063612a23565b5b600061207286828701611fb4565b935050602061208386828701611fb4565b925050604061209486828701611fc9565b9150509250925092565b600080604083850312156120b5576120b4612a23565b5b60006120c385828601611fb4565b92505060206120d485828601611fc9565b9150509250929050565b6000602082840312156120f4576120f3612a23565b5b600061210284828501611fc9565b91505092915050565b60006121178383612123565b60208301905092915050565b61212c81612835565b82525050565b61213b81612835565b82525050565b600061214c826126db565b61215681856126fe565b9350612161836126cb565b8060005b83811015612192578151612179888261210b565b9750612184836126f1565b925050600181019050612165565b5085935050505092915050565b6121a881612847565b82525050565b60006121b9826126e6565b6121c3818561270f565b93506121d381856020860161288a565b6121dc81612a28565b840191505092915050565b60006121f460238361270f565b91506121ff82612a39565b604082019050919050565b6000612217601b8361270f565b915061222282612a88565b602082019050919050565b600061223a60228361270f565b915061224582612ab1565b604082019050919050565b600061225d60268361270f565b915061226882612b00565b604082019050919050565b600061228060228361270f565b915061228b82612b4f565b604082019050919050565b60006122a3601d8361270f565b91506122ae82612b9e565b602082019050919050565b60006122c660268361270f565b91506122d182612bc7565b604082019050919050565b60006122e960238361270f565b91506122f482612c16565b604082019050919050565b600061230c60208361270f565b915061231782612c65565b602082019050919050565b600061232f60218361270f565b915061233a82612c8e565b604082019050919050565b600061235260208361270f565b915061235d82612cdd565b602082019050919050565b600061237560258361270f565b915061238082612d06565b604082019050919050565b600061239860248361270f565b91506123a382612d55565b604082019050919050565b60006123bb60258361270f565b91506123c682612da4565b604082019050919050565b60006123de601f8361270f565b91506123e982612df3565b602082019050919050565b6123fd81612873565b82525050565b61240c8161287d565b82525050565b60006020820190506124276000830184612132565b92915050565b600060208201905081810360008301526124478184612141565b905092915050565b6000602082019050612464600083018461219f565b92915050565b600060408201905061247f600083018561219f565b61248c60208301846123f4565b9392505050565b600060208201905081810360008301526124ad81846121ae565b905092915050565b600060208201905081810360008301526124ce816121e7565b9050919050565b600060208201905081810360008301526124ee8161220a565b9050919050565b6000602082019050818103600083015261250e8161222d565b9050919050565b6000602082019050818103600083015261252e81612250565b9050919050565b6000602082019050818103600083015261254e81612273565b9050919050565b6000602082019050818103600083015261256e81612296565b9050919050565b6000602082019050818103600083015261258e816122b9565b9050919050565b600060208201905081810360008301526125ae816122dc565b9050919050565b600060208201905081810360008301526125ce816122ff565b9050919050565b600060208201905081810360008301526125ee81612322565b9050919050565b6000602082019050818103600083015261260e81612345565b9050919050565b6000602082019050818103600083015261262e81612368565b9050919050565b6000602082019050818103600083015261264e8161238b565b9050919050565b6000602082019050818103600083015261266e816123ae565b9050919050565b6000602082019050818103600083015261268e816123d1565b9050919050565b60006020820190506126aa60008301846123f4565b92915050565b60006020820190506126c56000830184612403565b92915050565b6000819050602082019050919050565b600081519050919050565b600081519050919050565b6000602082019050919050565b600082825260208201905092915050565b600082825260208201905092915050565b600061272b82612873565b915061273683612873565b9250827fffffffffffffffffffffffffffffffffffffffffffffffffffffffffffffffff0382111561276b5761276a612938565b5b828201905092915050565b600061278182612873565b915061278c83612873565b92508261279c5761279b612967565b5b828204905092915050565b60006127b282612873565b91506127bd83612873565b9250817fffffffffffffffffffffffffffffffffffffffffffffffffffffffffffffffff04831182151516156127f6576127f5612938565b5b828202905092915050565b600061280c82612873565b915061281783612873565b92508282101561282a57612829612938565b5b828203905092915050565b600061284082612853565b9050919050565b60008115159050919050565b600073ffffffffffffffffffffffffffffffffffffffff82169050919050565b6000819050919050565b600060ff82169050919050565b60005b838110156128a857808201518184015260208101905061288d565b838111156128b7576000848401525b50505050565b600060028204905060018216806128d557607f821691505b602082108114156128e9576128e8612996565b5b50919050565b60006128fa82612873565b91507fffffffffffffffffffffffffffffffffffffffffffffffffffffffffffffffff82141561292d5761292c612938565b5b600182019050919050565b7f4e487b7100000000000000000000000000000000000000000000000000000000600052601160045260246000fd5b7f4e487b7100000000000000000000000000000000000000000000000000000000600052601260045260246000fd5b7f4e487b7100000000000000000000000000000000000000000000000000000000600052602260045260246000fd5b7f4e487b7100000000000000000000000000000000000000000000000000000000600052603160045260246000fd5b7f4e487b7100000000000000000000000000000000000000000000000000000000600052603260045260246000fd5b600080fd5b6000601f19601f8301169050919050565b7f45524332303a207472616e7366657220746f20746865207a65726f206164647260008201527f6573730000000000000000000000000000000000000000000000000000000000602082015250565b7f5374616b6520416d6f756e742063616e6e6f74206265207a65726f0000000000600082015250565b7f45524332303a206275726e20616d6f756e7420657863656564732062616c616e60008201527f6365000000000000000000000000000000000000000000000000000000000000602082015250565b7f4f776e61626c653a206e6577206f776e657220697320746865207a65726f206160008201527f6464726573730000000000000000000000000000000000000000000000000000602082015250565b7f45524332303a20617070726f766520746f20746865207a65726f20616464726560008201527f7373000000000000000000000000000000000000000000000000000000000000602082015250565b7f45524332303a20696e73756666696369656e7420616c6c6f77616e6365000000600082015250565b7f45524332303a207472616e7366657220616d6f756e742065786365656473206260008201527f616c616e63650000000000000000000000000000000000000000000000000000602082015250565b7f596f75206e656564206d6f6e657920666f722074686973207472616e7361637460008201527f696f6e0000000000000000000000000000000000000000000000000000000000602082015250565b7f4f776e61626c653a2063616c6c6572206973206e6f7420746865206f776e6572600082015250565b7f45524332303a206275726e2066726f6d20746865207a65726f2061646472657360008201527f7300000000000000000000000000000000000000000000000000000000000000602082015250565b7f596f7520617265206e6f742064756520666f7220612072657761726420796574600082015250565b7f45524332303a207472616e736665722066726f6d20746865207a65726f20616460008201527f6472657373000000000000000000000000000000000000000000000000000000602082015250565b7f45524332303a20617070726f76652066726f6d20746865207a65726f2061646460008201527f7265737300000000000000000000000000000000000000000000000000000000602082015250565b7f45524332303a2064656372656173656420616c6c6f77616e63652062656c6f7760008201527f207a65726f000000000000000000000000000000000000000000000000000000602082015250565b7f45524332303a206d696e7420746f20746865207a65726f206164647265737300600082015250565b612e2581612835565b8114612e3057600080fd5b50565b612e3c81612873565b8114612e4757600080fd5b5056fea26469706673582212201e1c5d5046f153d2fa6381c0f305a6663dc77f7cb37e26a20d6fd4df503d08b464736f6c63430008070033",
  "linkReferences": {},
  "deployedLinkReferences": {}
}